S00E00006774696D65722E737265638E
S11300000C94A5000C94C2000C94C2000C94C20081
S11300100C94C2000C94C2000C94C2000C94C20054
S11300200C94C2000C94C2000C94C2000C949C0268
S11300300C94C2000C94C2000C94C2000C94C20034
S11300400C94C2000C94C2000C94B5010C94DE0113
S11300500C94C2000C94C2000C94C2000C94C20014
S11300600C94C2000C94C2000C94C2000C94C20004
S11300700C94C2000C94C2000C94C2000C94C200F4
S11300800C94C2000C94C2000C94C2000C94C200E4
S11300900C94C2000C94C2000C94C2000C94C200D4
S11300A00C94C2000C94C2000C94C2000C94C200C4
S11300B00C94C200CC07EA070708070807080708DA
S11300C007080708070807080708070807080708B4
S11300D00708A906070814070708320707084F0787
S11300E052070708560707080708070807085907AB
S11300F05D07070807080708600764078307070800
S11301000708AA0707080708AD070708070807082C
S113011007080708070814070708320707084F07E6
S1130120520707085607070807080708070859076A
S11301305D070708070807086007640783070708BF
S11301400708AA0707080708AD0711241FBECFEF49
S1130150D8E0DEBFCDBF16E0A0E0B1E0E2E9FCE10B
S113016002C005900D92A637B107D9F726E0A6E79D
S1130170B6E001C01D92A03AB207E1F70E940C0854
S11301800C94470E0C9400000E94EE00089587B171
S1130190806287B988B18F7D88B988B18F7D88B92D
S11301A087B1806187B988B18F7E88B988B18F7E25
S11301B088B90E94740108950E94610108958AB16A
S11301C08E7F8AB98BB18E7F8BB98AB182608AB9EE
S11301D08BB18D7F8BB90E944B0208958DE3809380
S11301E065008FEF8093640094B114B895B185B91C
S11301F097B1907897B998B19F6798B99AB11AB89E
S11302009BB18BB98DB1807F8DB98EB18F608EB962
S113021084B1816084B985B18E7F85B987B18E7FC1
S113022087B987B18E7F87B988B1816088B987B172
S1130230826087B988B18D7F88B987B18B7F87B990
S113024087B18B7F87B988B1846088B987B18860AA
S113025087B988B1877F88B940E060E881E690E09B
S11302600E945A0113BE15BE0E943D010E94C700A0
S11302700E94DC000E94DF00089580E00895F9994F
S1130280FECF92BD81BD8FB381608FBB80B50895D1
S1130290F999FECF92BD81BD60BD0FB6F8940F925F
S11302A08FB384608FBB8FB382608FBB0F900FBE00
S11302B080E008952FB7F894FC01608340832FBF3A
S11302C00895E4E6F0E08081877F80838DE0809369
S11302D0810082E39EE1909389008093880082E00C
S11302E080936F0080E00895E4E6F0E080818F77EA
S11302F0808380E28093B8001092B90080E0089572
S11303009091C600E0918306EF5FE77080918206CA
S1130310E81759F0E0938306F0E0EC57F94F908327
S1130320809181068F5F809381060895809176067F
S1130330882389F0E0917706EF5FE770E093770612
S1130340F0E0E758F94F80818093C60080917606EB
S113035081508093760680917606811105C0E1EC88
S1130360F0E080818F7D808308951F920F920FB6F5
S11303700F9211242F933F934F935F936F937F9327
S11303808F939F93AF93BF93EF93FF93E0910201F9
S1130390F0910301309709F00995FF91EF91BF9116
S11303A0AF919F918F917F916F915F914F913F9109
S11303B02F910F900FBE0F901F9018951F920F92C0
S11303C00FB60F9211242F933F934F935F936F9324
S11303D07F938F939F93AF93BF93EF93FF93E0919A
S11303E00001F0910101309709F00995FF91EF9117
S11303F0BF91AF919F918F917F916F915F914F9139
S11304003F912F910F900FBE0F901F9018959091D0
S1130410810681E0911101C080E0089580918106F8
S11304208823E1F3E0918206EF5FE770E0938206B0
S11304300FB6F8940F9280918106815080938106C3
S11304400F900FBEF0E0EC57F94F80810895209192
S113045078062F5F2770909176069830E1F3E22FAB
S1130460F0E0E758F94F8083209378060FB6F894AC
S11304700F92809176068F5F809376060F900FBE61
S1130480E1ECF0E080818062808308950E9427027D
S113049080E090E00895E4E6F0E080818D7F808341
S11304A01092C50083E38093C4001092C00088E9D1
S11304B08093C100109282061092830610928106E6
S11304C010927706109278061092760684E091E0F6
S11304D090939D0680939C0680E0089584EA80931F
S11304E0BC008091BC008823E4F7089584E98093DC
S11304F0BC0008958093BB0084E88093BC00809185
S1130500BC008823E4F7089584EC8093BC008091B8
S1130510BC008823E4F78091BB00089584E88093AD
S1130520BC008091BC008823E4F78091BB0008954F
S11305308091B900887F08951F920F920FB60F9291
S113054011248F939F9380918D068F5F80938D06E6
S113055080918D068C33C0F010928D0680918E06AA
S11305608F5F80938E0680918E068C3368F0109294
S11305708E0680918F068F5F80938F0680918F0601
S1130580883110F010928F06809190068823B9F07C
S113059080918D0680FD04C088B1826088B903C053
S11305A088B18D7F88B980918D0680FF04C088B1A1
S11305B0886088B931C088B1877F88B92DC080919F
S11305C09906823059F480918D0680FD04C088B16B
S11305D0826088B903C088B18D7F88B980919906FB
S11305E0843059F480918D0680FD04C088B1886000
S11305F088B903C088B1877F88B98091990685300E
S113060059F480918D06837021F488B1886088B98B
S113061003C088B1877F88B980919106882329F027
S11306208091910681508093910680919906823041
S113063039F490919106911103C093E09093980638
S113064090918D069E3119F491E09093120190914E
S11306508D06911161C090918E069F3021F090918A
S11306608E069D3219F491E09093130190918E06B9
S1130670911152C090918F06911103C091E0909313
S11306808C06811149C080919706873138F4909186
S11306908F069F3019F491E09093980699EE980F85
S11306A0943058F490918F069F3021F090918F06EA
S11306B0953119F491E09093980695EE980F943043
S11306C078F490918F069F3041F090918F0692318B
S11306D021F090918F06953119F491E0909398064A
S11306E08F3178F080918F068F3041F080918F06A2
S11306F0823121F080918F06853119F481E0809355
S11307009806809196068F3138F080918F06893053
S113071019F481E0809398069F918F910F900FBEFA
S11307200F901F90189520918D0690918E068091C0
S11307308F061F922F931F929F931F928F9384E291
S113074091E09F938F930E94320B8DB79EB70896CA
S11307500FB6F8949EBF0FBE8DBF8091990684306A
S113076041F0853049F081110AC081E080939806F8
S1130770089510929806089584E080939806089549
S113078020918D0690918E0680918F061F922F9353
S11307901F929F931F928F9380E491E09F938F9376
S11307A00E94320B8DB79EB708960FB6F8949EBF81
S11307B00FBE8DBF80919906823099F028F488236A
S11307C041F0813051F00895833079F0843089F01C
S11307D0089584E080939806089583E080939806B2
S11307E0089583E080939806089584E080939806A2
S11307F0089585E0809398060895CF93DF93C82FDA
S11308000E946E020E9498028830B9F580E80E9426
S11308107A020E949802883199F58C2F0E947A02FC
S11308200E949802883279F50E946E020E94980212
S1130830803161F581E80E947A020E949802803436
S113084041F50E948402C82FD0E0DC2FCC270E94FF
S11308509802803509F50E948402C82B0E949802F0
S11308608035E9F40E948E020E9498028835D1F402
S11308700E947602CE018C7F17C081E090E014C004
S113088082E090E011C083E090E00EC084E090E04C
S11308900BC085E090E008C086E090E005C087E0EA
S11308A090E002C088E090E0DF91CF910895CF926C
S11308B0DF92EF92FF9283EE0E94FD03BC0180E081
S11308C090E00E940D0A22E538EB4FE253E40E94C7
S11308D0BF0A20E030E040E857E30E94BF0A26E662
S11308E036E64BE352E40E946C096B017C0120E084
S11308F030E0A9010E94D90988231CF4C12CD12C11
S11309007601C701B6010E94DE09862F90E0FF90B0
S1130910EF90DF90CF900895CF92DF92EF92FF9205
S113092083EE0E94FD03BC0180E090E00E940D0A6A
S113093020E030E04AEF52E40E94BF0A20E030E0B9
S113094040E857E30E94BF0A20E030E040EC50E466
S11309500E946C096B017C0120E030E0A9010E9437
S1130960D90988231CF4C12CD12C7601C701B60106
S11309700E94DE09862FFF90EF90DF90CF900895BC
S1130980CF93C82F0E946E020E949802883011F5FE
S113099080ED0E947A020E9498028831E9F48C2F3B
S11309A00E947A020E9498028832C1F40E946E0268
S11309B081ED0E947A020E949802803489F40E9498
S11309C08E02C82F0E949802883561F40E94760234
S11309D08C2F09C081E007C082E005C083E003C01A
S11309E084E001C085E0CF910895CF93DF932091F7
S11309F08D0690918E0680918F061F922F931F92E1
S1130A009F931F928F938AED91E09F938F930E94FF
S1130A10320B80E00E94C004D82FD295DF70DD0F26
S1130A209D2F990F990FD90F8F70D80F81E00E94D5
S1130A30C004C82FC295CF70CC0F9C2F990F990F6B
S1130A40C90F8F70C80F82E00E94C004282F207342
S1130A5030E0359527953595279535952795359526
S1130A602795220F922F990F990F290F8F70280F16
S1130A70D0938D06C0938E0620938F061F92DF932A
S1130A801F92CF931F922F9386EE94E09F938F93A0
S1130A900E94320B8DB79EB740960FB6F8949EBF56
S1130AA00FBE8DBFDF91CF910895CF93DF938EEF6B
S1130AB093E00E943F0190E0D82FCC278FEF93E082
S1130AC00E943F019E01280F311DC9012093920607
S1130AD09093930640918D0630918E0620918F0657
S1130AE09F938F931F924F931F923F931F922F9325
S1130AF086EF91E09F938F930E94320B8DB79EB740
S1130B000A960FB6F8949EBF0FBE8DBFDF91CF91AA
S1130B100895CF93DF9320918D0690918E06809156
S1130B208F061F922F931F929F931F928F9387E19B
S1130B3092E09F938F930E94320B8DB79EB70896D5
S1130B400FB6F8949EBF0FBE8DBFC0E0D0E005C0C5
S1130B506FEFCE010E9448012196CF3F93E0D90761
S1130B60B8F360E08EEF93E00E94480160E08FEFFD
S1130B7093E00E9448018AE392E00E944F0B0E9496
S1130B805505DF91CF910895CF93C62F682F80919B
S1130B909206909193060E9448018091920690914A
S1130BA09306019690939306809392066C2F0E946D
S1130BB04801809192069091930601969093930632
S1130BC0809392068E3F934020F0109293061092E9
S1130BD09206609193068EEF93E00E944801609123
S1130BE092068FEF93E00E94480120918D06909128
S1130BF08E0680918F06309193063F933091920632
S1130C003F931F922F931F929F931F928F9380E481
S1130C1092E09F938F930E94320B8DB79EB70A96F2
S1130C200FB6F8949EBF0FBE8DBFCF910895FF926B
S1130C300F931F93CF93DF9320918D0690918E068F
S1130C4080918F061F922F931F929F931F928F93D1
S1130C5085E692E09F938F930E94320B84E892E0A2
S1130C600E944F0B00919206109193068DB79EB788
S1130C7008960FB6F8949EBF0FBE8DBFC0E0D0E0BB
S1130C801FC02196C80101970E943F01F82E02500F
S1130C901109C8010E943F011F92FF921F928F9376
S1130CA0DF93CF9385E992E09F938F930E94320B59
S1130CB08DB79EB708960FB6F8949EBF0FBE8DBF32
S1130CC001151105F1F60CEF13E024C02196C801BB
S1130CD00E943F01F82EC80101960E943F019FEF38
S1130CE0F91202C08F3FA1F01F928F931F92FF92BF
S1130CF0DF93CF9385E992E09F938F930E94320B09
S1130D008DB79EB708960FB6F8949EBF0FBE8DBFE1
S1130D1002501109809192069091930680179107D1
S1130D20A8F28AE090E00E94480BDF91CF911F91D6
S1130D300F91FF9008956BC10E940E0290E0FC0198
S1130D40F097EB34F10508F062C1E65AFF4F0C94BA
S1130D502C0B20918D0690918E0680918F061F9208
S1130D602F931F929F931F928F9388EA92E09F93F1
S1130D708F930E94320B8AE090E00E94480B8BEC28
S1130D8092E00E944F0B8FEE92E00E944F0B85E1A0
S1130D9093E00E944F0B8EE393E00E944F0B8AE096
S1130DA090E00E94480B87E693E00E944F0B85E891
S1130DB093E00E944F0B80EA93E00E944F0B8AE07D
S1130DC090E00E94480B8AEB93E00E944F0B8FEC5B
S1130DD093E00E944F0B85EE93E00E944F0B8AE054
S1130DE090E00E94480B8EEF93E00E944F0B84E149
S1130DF094E00E944F0B8AE090E00E94480B8BE243
S1130E0094E00E944F0B8CE394E00E944F0B8AE025
S1130E1090E00E94480B8DB79EB708960FB6F894E1
S1130E209EBF0FBE8DBFF3C020918D0690918E069C
S1130E3080918F061F922F931F929F931F928F93DF
S1130E408CE494E09F938F930E94320B81E0809313
S1130E5090068DB79EB708960FB6F8949EBF0FBE46
S1130E608DBFD5C020918D0690918E0680918F06FE
S1130E701F922F931F929F931F928F9389E794E061
S1130E809F938F930E94320B109290068DB79EB75A
S1130E9008960FB6F8949EBF0FBE8DBFB8C00E94CF
S1130EA08905B5C081E080938C06B1C00E94170605
S1130EB0AEC081E080931201AAC00E949303A7C030
S1130EC081E080931301A3C03091900620918D0698
S1130ED090918E0680918F061F923F931F922F93BD
S1130EE01F929F931F928F9387EA94E09F938F930F
S1130EF00E94320B8DB79EB70A960FB6F8949EBF28
S1130F000FBE8DBF84C050918D0640918E063091E6
S1130F108F0620918D0690918E0680918F061F92E8
S1130F205F931F924F931F923F931F922F931F9291
S1130F309F931F928F9381ED94E09F938F930E94D0
S1130F40320B8DB79EB70E960FB6F8949EBF0FBEA8
S1130F508DBF5DC00E94C0035AC020918D06909140
S1130F608E0680918F061F922F931F929F931F923C
S1130F708F9386EF94E09F938F930E94320B10928D
S1130F809706109295068DB79EB708960FB6F894FB
S1130F909EBF0FBE8DBF3BC020918D0690918E06E3
S1130FA080918F061F922F931F929F931F928F936E
S1130FB08CE295E09F938F930E94320B85B18E7FD4
S1130FC085B98DB79EB708960FB6F8949EBF0FBE2D
S1130FD08DBF1DC020918D0690918E0680918F0645
S1130FE01F922F931F929F931F928F938DE495E0EE
S1130FF09F938F930E94320B85B1816085B98DB721
S11310009EB708960FB6F8949EBF0FBE8DBF0E9480
S11310100702811191CE08950E94C40078948DE650
S113102095E00E944F0B81E995E00E944F0B0E94CE
S1131030550588B1826088B988B1886088B9809183
S11310401301882321F0109213010E94F50480916A
S11310501201882309F44FC0109212010E94570410
S1131060EC01809197068C1710F4C09397060E94A8
S11310708C04182F80919506811710F4109395060F
S113108020918D0690918E0680918F063091940662
S11310901F923F93309195061F923F931F921F9387
S11310A0309196061F923F93309197061F923F937B
S11310B0DD27DF93CF931F922F931F929F931F924D
S11310C08F9386EB95E09F938F930E94320B8DB79D
S11310D09EB744960FB6F8949EBF0FBE8DBF1B35C6
S11310E050F081E08093900683E08093980688EF27
S11310F095E00E944F0B80918C06882389F1109211
S11311008C0620918D0690918E0680918F061F92F9
S11311102F931F929F931F928F9380E196E09F934A
S11311208F930E94320B80919706809396061092BB
S11311309706609195066093940610929506909197
S113114099062DB73EB7285F3F4F0FB6F8943EBFC0
S11311500FBE2DBF943011F4109298060E94C4055E
S113116086B1982F917080911701880F890F809311
S1131170170190911601992331F0811104C0109246
S113118016010E94930380911601811107C080917A
S113119017018F3F19F481E08093160186B182FB19
S11311A0992790F980911501880F890F8093150173
S11311B090911401992331F0811104C0109214010B
S11311C00E94C00380911401811107C08091150110
S11311D08F3F19F481E080931401E0919906A09166
S11311E09806EA1709F46CC020918D0690918E063A
S11311F080918F06B0E0AA0FBB1FA85EBE4F119668
S11312003C9111973F933C913F93F0E0EE0FFF1F09
S1131210E85EFE4F31813F9330813F931F922F93BD
S11312201F929F931F928F9389E296E09F938F93CF
S11312300E94320B80919806809399062DB73EB791
S1131240245F3F4F0FB6F8943EBF0FBE2DBF8330CF
S113125021F128F4882341F0813069F031C08430D1
S113126011F1853039F12CC088B1826088B988B118
S1131270886088B925C080919006811104C085B129
S1131280816085B903C085B18E7F85B98CE3809375
S1131290910682E08093980613C085B18E7F85B94C
S11312A0109298060DC088B1826088B988B18860B0
S11312B088B906C088B1826088B988B1886088B965
S11312C00E94070281110E949B068FE19EE4019710
S11312D0F1F700C00000B3CE5058BB27AA270E94E4
S11312E084090C94850A0E94770A38F00E947E0AC9
S11312F020F039F49F3F19F426F40C94740A0EF488
S1131300E095E7FB0C946E0AE92F0E94960A58F3C5
S1131310BA17620773078407950720F079F4A6F5D6
S11313200C94B80A0EF4E0950B2EBA2FA02D0B01E5
S1131330B90190010C01CA01A0011124FF27591B16
S113134099F0593F50F4503E68F11A16F040A22F1C
S1131350232F342F4427585FF3CF4695379527958D
S1131360A795F0405395C9F77EF41F16BA0B620B8C
S1131370730B840BBAF09150A1F0FF0FBB1F661FD3
S1131380771F881FC2F70EC0BA0F621F731F841F16
S113139048F4879577956795B795F7959E3F08F03C
S11313A0B0CF9395880F08F09927EE0F97958795FE
S11313B008950E944A0A08F481E008950E949E0A52
S11313C088F09F5798F0B92F9927B751B0F0E1F002
S11313D0660F771F881F991F1AF0BA95C9F714C0B2
S11313E0B13091F00E94B80AB1E008950C94B80AA3
S11313F0672F782F8827B85F39F0B93FCCF38695EB
S113140077956795B395D9F73EF490958095709547
S113141061957F4F8F4F9F4F0895E89409C097FBC4
S11314203EF490958095709561957F4F8F4F9F4FB7
S11314309923A9F0F92F96E9BB279395F6958795FB
S113144077956795B795F111F8CFFAF4BB0F11F4BE
S113145060FF1BC06F5F7F4F8F4F9F4F16C0882365
S113146011F096E911C0772321F09EE8872F762F9B
S113147005C0662371F096E8862F70E060E02AF0DC
S11314809A95660F771F881FDAF7880F96958795C8
S113149097F90895990F0008550FAA0BE0E8FEEF9D
S11314A016161706E807F907C0F012161306E40724
S11314B0F50798F0621B730B840B950B39F40A261D
S11314C061F0232B242B252B21F408950A2609F4FB
S11314D0A140A6958FEF811D811D089597F99F67FF
S11314E080E870E060E008959FEF80EC08950024A8
S11314F00A941616170618060906089500240A9475
S113150012161306140605060895092E0394000CFA
S113151011F4882352F0BB0F40F4BF2B11F460FF89
S113152004C06F5F7F4F8F4F9F4F089557FD9058B2
S1131530440F551F59F05F3F71F04795880F97FB93
S1131540991F61F09F3F79F087950895121613064D
S11315501406551FF2CF4695F1DF08C0161617067C
S11315601806991FF1CF86957105610508940895B1
S1131570E894BB2766277727CB0197F908950E9443
S1131580D20A0C94850A0E94770A38F00E947E0AD7
S113159020F0952311F00C946E0A0C94740A112413
S11315A00C94B90A0E94960A70F3959FC1F3950FA3
S11315B050E0551F629FF001729FBB27F00DB11DD3
S11315C0639FAA27F00DB11DAA1F649F6627B00D63
S11315D0A11D661F829F2227B00DA11D621F739F4C
S11315E0B00DA11D621F839FA00D611D221F749F5A
S11315F03327A00D611D231F849F600D211D822FA1
S1131600762F6A2F11249F5750409AF0F1F08823C7
S11316104AF0EE0FFF1FBB1F661F771F881F9150F4
S11316205040A9F79E3F510580F00C946E0A0C942B
S1131630B90A5F3FE4F3983ED4F3869577956795AE
S1131640B795F795E7959F5FC1F7FE2B880F911D1E
S11316509695879597F90895EE0FFF1F0590F491DD
S1131660E02D0994A0E0B0E0E8E3FBE00C94200E48
S1131670AE014B5F5F4FFA0161917191AF018091AF
S11316809C0690919D060E947F0BE2E00C943C0E18
S113169060919C0670919D060E94760D08950F93AB
S11316A01F93CF93DF93E0919C06F0919D062381D5
S11316B021FF1BC08C01D0E0C0E0F80181918F01B3
S11316C060919C0670919D06DB011896ED91FC914A
S11316D01997882331F00995892B79F3DFEFCFEF40
S11316E0ECCF8AE00995892B19F08FEF9FEF02C0A8
S11316F08D2F9C2FDF91CF911F910F910895ABE017
S1131700B0E0E5E8FBE00C94100E6C017B018A016B
S1131710FC0117821682838181FFCCC1CE01019620
S11317203C01F6019381F70193FD859193FF81912B
S11317307F01882309F4BAC1853239F493FD859178
S113174093FF81917F01853229F4B60190E00E94D4
S1131750760DE7CF912C212C312CFFE1F315D8F035
S11317608B3279F038F4803279F08332A1F4232D6E
S113177020611DC08D3261F0803369F4232D216016
S113178016C0832D8260382EE32DE4603E2E2AC0DD
S1131790F32DF8601DC037FC2DC020ED280F2A3032
S11317A040F08E32B9F436FC81C1232D2064322EF0
S11317B019C036FE06C08AE0989E200D1124922E90
S11317C011C0EAE02E9E200D1124222EF32DF0628A
S11317D03F2E08C08C3621F4832D8068382E02C039
S11317E0883641F4F70193FD859193FF81917F0140
S11317F08111B3CF982F9F7D9554933028F40C5FBB
S11318001F4F9FE399830DC0833631F0833771F006
S1131810833509F059C021C0F801808189830E5FA6
S11318201F4F88248394912C530113C02801F2E0A4
S11318304F0E511CF801A080B18036FE03C0692D03
S113184070E002C06FEF7FEFC5010E946B0D4C0189
S11318508201F32DFF773F2E16C0280122E0420EAD
S1131860511CF801A080B18036FE03C0692D70E0E0
S113187002C06FEF7FEFC5010E94600D4C01F32D94
S1131880F0683F2E820133FC1BC0822D90E0881645
S11318909906B0F4B60180E290E00E94760D2A9495
S11318A0F4CFF50137FC859137FE81915F01B601D4
S11318B090E00E94760D21102A9421E0821A91086A
S11318C08114910471F7E8C0843611F0893641F52A
S11318D0F80137FE07C060817181828193810C5FBA
S11318E01F4F08C060817181072E000C880B990B73
S11318F00E5F1F4FF32DFF763F2E97FF09C0909583
S11319008095709561957F4F8F4F9F4FF0683F2E64
S11319102AE030E0A3010E94B20D882E861845C04B
S1131920853731F4232D2F7EB22E2AE030E025C0F6
S1131930932D997FB92E8F36C1F018F4883579F03C
S1131940B5C0803719F0883721F0B0C0E92FE061C5
S1131950BE2EB4FE0DC0FB2DF460BF2E09C034FEB4
S11319600AC0292F2660B22E06C028E030E005C048
S113197020E130E002C020E132E0F801B7FE07C008
S113198060817181828193810C5F1F4F06C06081E9
S1131990718180E090E00E5F1F4FA3010E94B20DA1
S11319A0882E8618FB2DFF773F2E36FE0DC0232D83
S11319B02E7FA22E891458F434FE0BC032FC09C0C9
S11319C0832D8E7EA82E05C0B82CA32C03C0B82C62
S11319D001C0B92CA4FE0FC0FE01E80DF11D8081E9
S11319E0803321F49A2D997EA92E09C0A2FE06C047
S11319F0B394B39404C08A2D867809F0B394A3FCFD
S1131A0011C0A0FE06C0B21488F4280C922C9B18B6
S1131A100EC0B21460F4B60180E290E00E94760D2C
S1131A20B394F7CFB21418F42B1802C0982C212CBD
S1131A30A4FE10C0B60180E390E00E94760DA2FEE1
S1131A4017C0A1FC03C088E790E002C088E590E0DD
S1131A50B6010CC08A2D867859F0A1FE02C08BE233
S1131A6001C080E2A7FC8DE2B60190E00E94760DF1
S1131A70891438F4B60180E390E00E94760D9A94BC
S1131A80F7CF8A94F301E80DF11D8081B60190E04F
S1131A900E94760D8110F5CF222009F442CEB601C2
S1131AA080E290E00E94760D2A94F6CFF6018681BA
S1131AB0978102C08FEF9FEF2B96E2E10C942C0EDE
S1131AC0FC010590615070400110D8F78095909505
S1131AD08E0F9F1F0895FC0161507040019001100A
S1131AE0D8F7809590958E0F9F1F08950F931F939D
S1131AF0CF93DF93FB01238121FD03C08FEF9FEF81
S1131B002CC022FF16C0468157812481358142179B
S1131B10530744F4A081B1819D012F5F3F4F31836E
S1131B2020838C93268137812F5F3F4F3783268311
S1131B3014C08B01EC01FB010084F185E02D0995B3
S1131B40892BE1F6D80116968D919C9117970196F1
S1131B5017969C938E931697CE01DF91CF911F9188
S1131B600F910895FA01AA27283051F1203181F10B
S1131B70E8946F936E7F6E5F7F4F8F4F9F4FAF4F91
S1131B80B1E03ED0B4E03CD0670F781F891F9A1FA4
S1131B90A11D680F791F8A1F911DA11D6A0F711D58
S1131BA0811D911DA11D20D009F468943F912AE064
S1131BB0269F11243019305D3193DEF6CF0108954C
S1131BC0462F4770405D4193B3E00FD0C9F7F6CF7D
S1131BD0462F4F70405D4A3318F0495D31FD405245
S1131BE0419302D0A9F7EACFB4E0A69597958795DB
S1131BF077956795BA95C9F70097610571050895BA
S1131C009B01AC010A2E0694579547953795279565
S1131C10BA95C9F7620F731F841F951FA01D0895FD
S1131C202F923F924F925F926F927F928F929F92E8
S1131C30AF92BF92CF92DF92EF92FF920F931F93D6
S1131C40CF93DF93CDB7DEB7CA1BDB0B0FB6F89487
S1131C50DEBF0FBECDBF09942A88398848885F84C7
S1131C606E847D848C849B84AA84B984C884DF8038
S1131C70EE80FD800C811B81AA81B981CE0FD11D1C
S1131C800FB6F894DEBF0FBECDBFED010895F894F2
S1051C90FFCF80
S1131C9296018001000000020000000046020000DC
S1131CA20000010101FF01FF58065D066306670695
S1131CB26C067106253032643A253032643A253096
S1131CC2326420427574746F6E3A204E4F570A0084
S1131CD2253032643A253032643A25303264204267
S1131CE27574746F6E3A20574149540A0030383A79
S1131CF235303A303000436F6D70696C6520546939
S1131D026D653A2025730A0025643A25643A2564F0
S1131D120053657474696E672052544320746F20B3
S1131D22253032643A253032643A253032640A006E
S1131D3253657474696E67205365636F6E643A20E9
S1131D4225640A0053657474696E67204D696E7563
S1131D5274653A2025640A0053657474696E6720B9
S1131D62486F75723A2025640A00253032643A2598
S1131D723032643A25303264205254432075706400
S1131D826174653A2000253032643A253032643A6F
S1131D922530326420454550524F4D20696E6465AA
S1131DA2783A2025640A00253032643A25303264B8
S1131DB23A2530326420436C656172696E6720454E
S1131DC24550524F4D202E2E2E0020646F6E65001A
S1131DD2253032643A253032643A25303264204563
S1131DE24550524F4D206E657720696E6465783A8E
S1131DF22025640A00253032643A253032643A25BB
S1131E0230326420454550524F4D20686973746FD7
S1131E1272790A00446179207C54656D707C204893
S1131E22756D6964002530346420253032644320A2
S1131E322530326425250A00253032643A253032B1
S1131E42643A2530326420417661696C61626C6562
S1131E5220636F6D6D616E64730A006D3A204D6587
S1131E6261737572652074656D70657261747572E3
S1131E726520616E642068756D6964697479007A9D
S1131E823A20436C656172206D61782074656D70CF
S1131E926572617475726520616E642068756D691E
S1131EA26469747900683A2053686F772074656DA9
S1131EB2706572617475726520616E642068756DF7
S1131EC2696469747920686973746F727900653A18
S1131ED220576970652074656D70657261747572DE
S1131EE26520616E642068756D696469747920681F
S1131EF26973746F727900733A2053686F7720683C
S1131F02756D696469747920616C61726D20737492
S1131F126174757300633A205475726E2068756D2E
S1131F22696469747920616C61726D206F66660000
S1131F32613A205475726E2068756D6964697479AA
S1131F4220616C61726D206F6E00743A2053686F69
S1131F52772063757272656E742074696D650072A0
S1131F623A2053796E632074696D652066726F6DD1
S1131F722052544300663A2054726967676572209E
S1131F8266616B65206D69646E69676874006E3A98
S1131F922054726967676572204E4F5720627574C8
S1131FA2746F6E00773A20547269676765722057BE
S1131FB241495420627574746F6E00303A2054752E
S1131FC2726E2070756D70206F666600313A20540F
S1131FD275726E2070756D70206F6E0025303264DC
S1131FE23A253032643A2530326420536574746978
S1131FF26E672068756D696469747920616C6172B9
S11320026D20746F204F4E0A00253032643A253019
S113201232643A253032642053657474696E6720E1
S113202268756D696469747920616C61726D20747C
S11320326F204F46460A00253032643A2530326416
S11320423A253032642048756D6964697479206177
S11320526C61726D207374617475733A2025640A1D
S113206200253032643A253032643A253032642015
S113207254696D653A20253032643A253032643A27
S1132082253032640A00253032643A253032643A0B
S11320922530326420436C656172696E67206D611C
S11320A2782074656D706572617475726520616EF5
S11320B2642068756D69646974790A002530326434
S11320C23A253032643A25303264205475726E698E
S11320D26E672070756D70204F46460A00253032B7
S11320E2643A253032643A25303264205475726E73
S11320F2696E672070756D70204F4E0A000A68740D
S11321027470733A2F2F6769746875622E636F6DEA
S11321122F6B69752F6774696D65722076302E3264
S113212200456E74657220273F2720666F72206116
S11321327661696C61626C6520636F6D6D616E645A
S1132142732E2E2E0A00253032643A253032643A38
S113215225303264204D3A2025303264432028252C
S113216230326443202F2025303264432920253025
S1132172326425252028253032642525202F202568
S11321823032642525290A000A2A2A2A2048554D74
S1132192494449545920414C41524D202A2A2A008B
S11321A2253032643A253032643A25303264204D87
S11321B269646E696768740A00253032643A2530AE
S11321C232643A253032642050756D70206D6F642C
S11321D265206368616E67652066726F6D20257382
S11321E220746F2025730A0049444C45005354411E
S11321F252540052554E0053544F500057414954C3
S1092202004F46460000F7
S9030000FC
