S00E00006774696D65722E737265638E
S11300000C945A000C9477000C9477000C947700AD
S11300100C9477000C9477000C9477000C94770080
S11300200C9477000C9477000C9477000C94550290
S11300300C9477000C9477000C9477000C94770060
S11300400C9477000C9477000C946E010C94970137
S11300500C9477000C9477000C9477000C94770040
S11300600C9477000C9477000C9477000C94770030
S11300700C9477000C9477000C9477000C94770020
S11300800C9477000C9477000C9477000C94770010
S11300900C9477000C9477000C9477000C94770000
S11300A00C9477000C9477000C9477000C947700F0
S11300B00C94770011241FBECFEFD8E0DEBFCDBF74
S11300C012E0A0E0B1E0E2E0F7E102C005900D9299
S11300D0A03EB107D9F723E0A0EEB2E001C01D9223
S11300E0A930B207E1F70E948C050C947F0B0C94A5
S11300F000000E94A300089587B1806287B988B187
S11301008F7D88B988B18F7D88B987B1806187B9BF
S113011088B18F7E88B988B18F7E88B90E942D01FD
S113012008950E94160108958AB18E7F8AB98BB111
S11301308E7F8BB98AB182608AB98BB18D7F8BB97E
S11301400E94040208958DE3809365008FEF8093ED
S1130150640094B114B895B185B997B1907897B902
S113016098B19F6798B99AB11AB89BB18BB98DB100
S1130170807F8DB98EB18F608EB984B1816084B96E
S113018085B18E7F85B987B18E7F87B987B18E7F20
S113019087B988B1816088B987B1826087B988B12D
S11301A08D7F88B987B18B7F87B987B18B7F87B9FA
S11301B088B1846088B987B1886087B988B1877F3E
S11301C088B940E060E881E690E00E940F0113BE28
S11301D015BE0E94F2000E947C000E9491000E94C1
S11301E09400089580E00895F999FECF92BD81BDF1
S11301F08FB381608FBB80B50895F999FECF92BD0E
S113020081BD60BD0FB6F8940F928FB384608FBB2D
S11302108FB382608FBB0F900FBE80E008952FB71D
S1130220F894FC01608340832FBF0895E4E6F0E076
S11302308081877F80838DE18093810084E89EE1C3
S11302409093870080938600909389008093880020
S113025082E080936F0080E00895E4E6F0E080811E
S11302608F77808380E28093B8001092B90080E099
S113027008959091C600E091ED02EF5FE7708091E0
S1130280EC02E81759F0E093ED02F0E0E251FD4F83
S113029090838091EB028F5F8093EB0208958091AD
S11302A0E002882389F0E091E102EF5FE770E093D8
S11302B0E102F0E0ED51FD4F80818093C600809112
S11302C0E00281508093E0028091E002811105C038
S11302D0E1ECF0E080818F7D808308951F920F927E
S11302E00FB60F9211242F933F934F935F936F9305
S11302F07F938F939F93AF93BF93EF93FF93E0917B
S11303000201F0910301309709F00995FF91EF91F3
S1130310BF91AF919F918F917F916F915F914F9119
S11303203F912F910F900FBE0F901F9018951F9221
S11303300F920FB60F9211242F933F934F935F9315
S11303406F937F938F939F93AF93BF93EF93FF9399
S1130350E0910001F0910101309709F00995FF91B6
S1130360EF91BF91AF919F918F917F916F915F9129
S11303704F913F912F910F900FBE0F901F901895A2
S11303809091EB0281E0911101C080E00895809189
S1130390EB028823E1F3E091EC02EF5FE770E09376
S11303A0EC020FB6F8940F928091EB028150809387
S11303B0EB020F900FBEF0E0E251FD4F80810895F3
S11303C02091E2022F5F27709091E0029830E1F3D0
S11303D0E22FF0E0ED51FD4F80832093E2020FB64F
S11303E0F8940F928091E0028F5F8093E0020F9067
S11303F00FBEE1ECF0E080818062808308950E946A
S1130400E00180E090E00895E4E6F0E080818D7FF3
S113041080831092C50083E38093C4001092C000CF
S113042088E98093C1001092EC021092ED021092C0
S1130430EB021092E1021092E2021092E00284E0D8
S113044091E0909306038093050380E0089584EA85
S11304508093BC008091BC008823E4F7089584E96C
S11304608093BC0008958093BB0084E88093BC0013
S11304708091BC008823E4F7089584EC8093BC0049
S11304808091BC008823E4F78091BB00089584E840
S11304908093BC008091BC008823E4F78091BB006A
S11304A008958091B900887F08951F920F920FB626
S11304B00F9211248F939F938091F8028F5F809302
S11304C0F8028091F8028C33C0F01092F802809107
S11304D0F9028F5F8093F9028091F9028C3368F0FE
S11304E01092F9028091FA028F5F8093FA02809150
S11304F0FA02883110F01092FA028091FA02811106
S11305000BC08091F902811107C08091F80281111A
S113051003C081E08093F6028091FA02843059F49A
S11305208091F902811107C08091F802811103C002
S113053081E08093F7028091F8028E3119F481E012
S1130540809312018091FC02882329F08091FC029F
S113055081508093FC0280910203823039F490919F
S1130560FC02911103C093E0909301039091FB026C
S11305709923B9F08091F80280FD04C088B18260AB
S113058088B903C088B18D7F88B98091F80280FF53
S113059004C088B1886088B92FC088B1877F88B9C2
S11305A02BC0823059F48091F80280FD04C088B1D8
S11305B0826088B903C088B18D7F88B980910203B5
S11305C0843059F48091F80280FD04C088B18860B9
S11305D088B903C088B1877F88B9809102038530C8
S11305E059F48091F802837021F488B1886088B945
S11305F003C088B1877F88B98091F902811151C005
S11306008091F80281114DC080910203811149C08B
S113061080910003873138F49091FA029F3019F4E5
S113062091E09093010399EE980F943058F49091CF
S1130630FA029F3021F09091FA02953119F491E079
S11306409093010395EE980F943078F49091FA0208
S11306509F3041F09091FA02923121F09091FA0288
S1130660953119F491E0909301038F3178F08091E2
S1130670FA028F3041F08091FA02823121F08091A8
S1130680FA02853119F481E0809301038091FF021D
S11306908F3138F08091FA02893019F481E0809327
S11306A001039F918F910F900FBE0F901F9018958B
S11306B083E291E00E94870880910203843041F034
S11306C0853049F081110AC081E0809301030895C7
S11306D010920103089584E08093010308958FE24A
S11306E091E00E94870880910203823099F028F4F7
S11306F0882341F0813051F00895833079F08430BB
S113070089F0089584E080930103089583E0809341
S11307100103089583E080930103089584E08093A6
S11307200103089585E0809301030895CF93DF9337
S1130730C82F0E9427020E9451028830B9F580E830
S11307400E9433020E945102883199F58C2F0E9435
S113075033020E945102883279F50E9427020E94D6
S11307605102803161F581E80E9433020E945102F6
S1130770803441F50E943D02C82FD0E0DC2FCC2705
S11307800E945102803509F50E943D02C82B0E9447
S113079051028035E9F40E9447020E9451028835D3
S11307A0D1F40E942F02CE018C7F17C081E090E02B
S11307B014C082E090E011C083E090E00EC084E0B9
S11307C090E00BC085E090E008C086E090E005C0B2
S11307D087E090E002C088E090E0DF91CF91089537
S11307E0CF92DF92EF92FF9283EE0E949603BC01B8
S11307F080E090E00E944B0722E538EB4FE253E49F
S11308000E94FD0720E030E040E857E30E94FD0726
S113081026E636E64BE352E40E94AA066B017C010D
S113082020E030E0A9010E94170788231CF4C12CA2
S1130830D12C7601C701B6010E941C07862F90E0D7
S1130840FF90EF90DF90CF900895CF92DF92EF92D8
S1130850FF9283EE0E949603BC0180E090E00E9428
S11308604B0720E030E04AEF52E40E94FD0720E00D
S113087030E040E857E30E94FD0720E030E040EC20
S113088050E40E94AA066B017C0120E030E0A9013B
S11308900E94170788231CF4C12CD12C7601C701B0
S11308A0B6010E941C07862FFF90EF90DF90CF9037
S11308B00895CF93C82F0E9427020E9451028830C6
S11308C011F580ED0E9433020E9451028831E9F44F
S11308D08C2F0E9433020E9451028832C1F40E947C
S11308E0270281ED0E9433020E945102803489F470
S11308F00E944702C82F0E945102883561F40E9469
S11309002F028C2F09C081E007C082E005C083E07C
S113091003C084E001C085E0CF910895CF93DF93B5
S113092089EB91E00E9487082091F8029091F902E6
S11309308091FA021F922F931F929F931F928F937D
S113094084EC91E09F938F930E946A0880E00E9458
S11309505904D82FD295DF70DD0F9D2F990F990F71
S1130960D90F8F70D80F81E00E945904C82FC29507
S1130970CF70CC0F9C2F990F990FC90F8F70C80F90
S113098082E00E945904282F207330E03595279582
S1130990359527953595279535952795220F922FCF
S11309A0990F990F290F8F70280FD093F802C093D5
S11309B0F9022093FA021F92DF931F92CF931F92A2
S11309C02F938AED91E09F938F930E946A088DB7CD
S11309D09EB740960FB6F8949EBF0FBE8DBFDF91B1
S11309E0CF910895CF93DF938EEF93E00E94F400AC
S11309F090E0D82FCC278FEF93E00E94F4009E0163
S1130A00280F311DC9012093FD029093FE029F938C
S1130A102F938AE092E09F938F930E946A080F902D
S1130A200F900F900F90DF91CF910895682F8091D0
S1130A30FD029091FE020E94FD008091FD029091C2
S1130A40FE0201969093FE028093FD028E3F934036
S1130A5020F01092FE021092FD026091FE028EEFD1
S1130A6093E00E94FD006091FD028FEF93E00E94ED
S1130A70FD008091FE028F938091FD028F938CE1A3
S1130A8092E09F938F930E946A080F900F900F90AB
S1130A900F900895CF93DF9382E392E09F938F9317
S1130AA00E946A08C091FD02D091FE020F900F903F
S1130AB010C0CE010E94F4001F928F9383E492E051
S1130AC09F938F930E946A0821970F900F900F9025
S1130AD00F90209771F7CDEFD3E010C0CE010E94A4
S1130AE0F4001F928F9383E492E09F938F930E946C
S1130AF06A0821970F900F900F900F908091FD023C
S1130B009091FE028C179D0748F38AE090E00E94C2
S1130B108008DF91CF9108950E947900789488E449
S1130B2092E00E9487080E948E040E94F20488B119
S1130B30826088B988B1886088B98091F702882377
S1130B4021F01092F7020E948E04809112018823F2
S1130B50B1F1109212010E94F003209100032817B2
S1130B6010F4809300032091FF021F922F93209191
S1130B7000031F922F9399279F938F938DE692E002
S1130B809F938F930E946A080E942504C82F1F9286
S1130B908F9387E992E09F938F930E946A088DB7A1
S1130BA09EB70C960FB6F8949EBF0FBE8DBFCB3583
S1130BB030F081E08093FB0283E080930103809115
S1130BC0F602882381F01092F6028091000380934C
S1130BD0FF021092000390910203943011F41092DA
S1130BE001030E94160586B1982F91708091160119
S1130BF0880F890F8093160190911501992331F084
S1130C00811104C0109215010E94580380911501AE
S1130C10811107C0809116018F3F19F481E0809300
S1130C20150186B182FB992790F980911401880FF0
S1130C30890F8093140190911301992331F081114C
S1130C4004C0109213010E946F038091130181115B
S1130C5007C0809114018F3F19F481E08093130140
S1130C60E0910203A0910103EA1709F45DC0B0E02A
S1130C70AA0FBB1FA95EBE4F11968C9111978F933B
S1130C808C918F93F0E0EE0FFF1FE95EFE4F8181A0
S1130C908F9380818F9387EA92E09F938F930E9432
S1130CA06A0880910103809302030F900F900F90C4
S1130CB00F900F900F90833021F128F4882341F096
S1130CC0813069F031C0843011F1853039F12CC0A4
S1130CD088B1826088B988B1886088B925C080915C
S1130CE0FB02811104C085B1816085B903C085B15F
S1130CF08E7F85B98CE38093FC0282E080930103AC
S1130D0013C085B18E7F85B9109201030DC088B1DF
S1130D10826088B988B1886088B906C088B1826069
S1130D2088B988B1886088B90E94C001811107C060
S1130D300AC00E94C701843711F40E944A050E9428
S1130D40C0018111F6CF8FE19EE40197F1F700C055
S1130D500000F3CE5058BB27AA270E94C2060C9469
S1130D60C3070E94B50738F00E94BC0720F039F48D
S1130D709F3F19F426F40C94B2070EF4E095E7FBB8
S1130D800C94AC07E92F0E94D40758F3BA176207F2
S1130D9073078407950720F079F4A6F50C94F607F9
S1130DA00EF4E0950B2EBA2FA02D0B01B901900182
S1130DB00C01CA01A0011124FF27591B99F0593FC6
S1130DC050F4503E68F11A16F040A22F232F342F0E
S1130DD04427585FF3CF469537952795A795F0405C
S1130DE05395C9F77EF41F16BA0B620B730B840B71
S1130DF0BAF09150A1F0FF0FBB1F661F771F881F29
S1130E00C2F70EC0BA0F621F731F841F48F4879580
S1130E1077956795B795F7959E3F08F0B0CF939572
S1130E20880F08F09927EE0F9795879508950E94EB
S1130E30880708F481E008950E94DC0788F09F5732
S1130E4098F0B92F9927B751B0F0E1F0660F771FEA
S1130E50881F991F1AF0BA95C9F714C0B13091F0E0
S1130E600E94F607B1E008950C94F607672F782FD7
S1130E708827B85F39F0B93FCCF3869577956795A5
S1130E80B395D9F73EF490958095709561957F4F11
S1130E908F4F9F4F0895E89409C097FB3EF49095B7
S1130EA08095709561957F4F8F4F9F4F9923A9F03F
S1130EB0F92F96E9BB279395F695879577956795CE
S1130EC0B795F111F8CFFAF4BB0F11F460FF1BC012
S1130ED06F5F7F4F8F4F9F4F16C0882311F096E9A5
S1130EE011C0772321F09EE8872F762F05C0662353
S1130EF071F096E8862F70E060E02AF09A95660F0C
S1130F00771F881FDAF7880F9695879597F90895C4
S1130F10990F0008550FAA0BE0E8FEEF1616170606
S1130F20E807F907C0F012161306E407F50798F06E
S1130F30621B730B840B950B39F40A2661F0232B87
S1130F40242B252B21F408950A2609F4A140A69503
S1130F508FEF811D811D089597F99F6780E870E0E8
S1130F6060E008959FEF80EC089500240A9416161B
S1130F70170618060906089500240A941216130683
S1130F80140605060895092E0394000C11F4882311
S1130F9052F0BB0F40F4BF2B11F460FF04C06F5F2D
S1130FA07F4F8F4F9F4F089557FD9058440F551F03
S1130FB059F05F3F71F04795880F97FB991F61F0D7
S1130FC09F3F79F087950895121613061406551F4E
S1130FD0F2CF4695F1DF08C0161617061806991FBA
S1130FE0F1CF86957105610508940895E894BB27AF
S1130FF066277727CB0197F908950E9410080C946F
S1131000C3070E94B50738F00E94BC0720F095235F
S113101011F00C94AC070C94B20711240C94F7074C
S11310200E94D40770F3959FC1F3950F50E0551FAC
S1131030629FF001729FBB27F00DB11D639FAA2729
S1131040F00DB11DAA1F649F6627B00DA11D661F78
S1131050829F2227B00DA11D621F739FB00DA11D99
S1131060621F839FA00D611D221F749F3327A00D53
S1131070611D231F849F600D211D822F762F6A2FEF
S113108011249F5750409AF0F1F088234AF0EE0F54
S1131090FF1FBB1F661F771F881F91505040A9F781
S11310A09E3F510580F00C94AC070C94F7075F3F0A
S11310B0E4F3983ED4F3869577956795B795F795BD
S11310C0E7959F5FC1F7FE2B880F911D9695879535
S11310D097F90895A0E0B0E0E0E7F8E00C94580B2D
S11310E0AE014B5F5F4FFA0161917191AF01809145
S11310F00503909106030E94B708E2E00C94740B78
S113110060910503709106030E94AE0A08950F933F
S11311101F93CF93DF93E0910503F091060323819E
S113112021FF1BC08C01D0E0C0E0F80181918F0148
S11311306091050370910603DB011896ED91FC9113
S11311401997882331F00995892B79F3DFEFCFEFD5
S1131150ECCF8AE00995892B19F08FEF9FEF02C03D
S11311608D2F9C2FDF91CF911F910F910895ABE0AC
S1131170B0E0EDEBF8E00C94480B6C017B018A01C4
S1131180FC0117821682838181FFCCC1CE010196B6
S11311903C01F6019381F70193FD859193FF8191C1
S11311A07F01882309F4BAC1853239F493FD85910E
S11311B093FF81917F01853229F4B60190E00E946A
S11311C0AE0AE7CF912C212C312CFFE1F315D8F096
S11311D08B3279F038F4803279F08332A1F4232D04
S11311E020611DC08D3261F0803369F4232D2160AC
S11311F016C0832D8260382EE32DE4603E2E2AC073
S1131200F32DF8601DC037FC2DC020ED280F2A30C7
S113121040F08E32B9F436FC81C1232D2064322E85
S113122019C036FE06C08AE0989E200D1124922E25
S113123011C0EAE02E9E200D1124222EF32DF0621F
S11312403F2E08C08C3621F4832D8068382E02C0CE
S1131250883641F4F70193FD859193FF81917F01D5
S11312608111B3CF982F9F7D9554933028F40C5F50
S11312701F4F9FE399830DC0833631F0833771F09C
S1131280833509F059C021C0F801808189830E5F3C
S11312901F4F88248394912C530113C02801F2E03A
S11312A04F0E511CF801A080B18036FE03C0692D99
S11312B070E002C06FEF7FEFC5010E94A30A4C01EA
S11312C08201F32DFF773F2E16C0280122E0420E43
S11312D0511CF801A080B18036FE03C0692D70E076
S11312E002C06FEF7FEFC5010E94980A4C01F32DF5
S11312F0F0683F2E820133FC1BC0822D90E08816DB
S11313009906B0F4B60180E290E00E94AE0A2A94F5
S1131310F4CFF50137FC859137FE81915F01B60169
S113132090E00E94AE0A21102A9421E0821A9108CA
S11313308114910471F7E8C0843611F0893641F5BF
S1131340F80137FE07C060817181828193810C5F4F
S11313501F4F08C060817181072E000C880B990B08
S11313600E5F1F4FF32DFF763F2E97FF09C0909518
S11313708095709561957F4F8F4F9F4FF0683F2EFA
S11313802AE030E0A3010E94EA0A882E861845C0AC
S1131390853731F4232D2F7EB22E2AE030E025C08C
S11313A0932D997FB92E8F36C1F018F4883579F0D2
S11313B0B5C0803719F0883721F0B0C0E92FE0615B
S11313C0BE2EB4FE0DC0FB2DF460BF2E09C034FE4A
S11313D00AC0292F2660B22E06C028E030E005C0DE
S11313E020E130E002C020E132E0F801B7FE07C09E
S11313F060817181828193810C5F1F4F06C060817F
S1131400718180E090E00E5F1F4FA3010E94EA0A01
S1131410882E8618FB2DFF773F2E36FE0DC0232D18
S11314202E7FA22E891458F434FE0BC032FC09C05E
S1131430832D8E7EA82E05C0B82CA32C03C0B82CF7
S113144001C0B92CA4FE0FC0FE01E80DF11D80817E
S1131450803321F49A2D997EA92E09C0A2FE06C0DC
S1131460B394B39404C08A2D867809F0B394A3FC92
S113147011C0A0FE06C0B21488F4280C922C9B184C
S11314800EC0B21460F4B60180E290E00E94AE0A8D
S1131490B394F7CFB21418F42B1802C0982C212C53
S11314A0A4FE10C0B60180E390E00E94AE0AA2FE42
S11314B017C0A1FC03C088E790E002C088E590E073
S11314C0B6010CC08A2D867859F0A1FE02C08BE2C9
S11314D001C080E2A7FC8DE2B60190E00E94AE0A52
S11314E0891438F4B60180E390E00E94AE0A9A941D
S11314F0F7CF8A94F301E80DF11D8081B60190E0E5
S11315000E94AE0A8110F5CF222009F442CEB60122
S113151080E290E00E94AE0A2A94F6CFF60186811A
S1131520978102C08FEF9FEF2B96E2E10C94640B3E
S1131530FC010590615070400110D8F7809590959A
S11315408E0F9F1F0895FC0161507040019001109F
S1131550D8F7809590958E0F9F1F08950F931F9332
S1131560CF93DF93FB01238121FD03C08FEF9FEF16
S11315702CC022FF16C04681578124813581421731
S1131580530744F4A081B1819D012F5F3F4F318304
S113159020838C93268137812F5F3F4F37832683A7
S11315A014C08B01EC01FB010084F185E02D099549
S11315B0892BE1F6D80116968D919C911797019687
S11315C017969C938E931697CE01DF91CF911F911E
S11315D00F910895FA01AA27283051F1203181F1A1
S11315E0E8946F936E7F6E5F7F4F8F4F9F4FAF4F27
S11315F0B1E03ED0B4E03CD0670F781F891F9A1F3A
S1131600A11D680F791F8A1F911DA11D6A0F711DED
S1131610811D911DA11D20D009F468943F912AE0F9
S1131620269F11243019305D3193DEF6CF010895E1
S1131630462F4770405D4193B3E00FD0C9F7F6CF12
S1131640462F4F70405D4A3318F0495D31FD4052DA
S1131650419302D0A9F7EACFB4E0A6959795879570
S113166077956795BA95C9F700976105710508954F
S11316709B01AC010A2E06945795479537952795FB
S1131680BA95C9F7620F731F841F951FA01D089593
S11316902F923F924F925F926F927F928F929F927E
S11316A0AF92BF92CF92DF92EF92FF920F931F936C
S11316B0CF93DF93CDB7DEB7CA1BDB0B0FB6F8941D
S11316C0DEBF0FBECDBF09942A88398848885F845D
S11316D06E847D848C849B84AA84B984C884DF80CE
S11316E0EE80FD800C811B81AA81B981CE0FD11DB2
S11316F00FB6F894DEBF0FBECDBFED010895F89488
S1051700FFCF15
S11317024F0139010000000200000000FF01000047
S113171200000101FF01FFC702CC02D202D6023748
S113172201DB02427574746F6E3A204E4F570042C9
S11317327574746F6E3A20574149540031353A3109
S1131742323A353100436F6D70696C652054696DAE
S1131752653A2025730A0025643A25643A25640013
S113176253657474696E672052544320746F202544
S11317723032643A253032643A253032640A0053F6
S1131782657474696E67205365636F6E643A2025CD
S1131792640A0053657474696E67204D696E7574CA
S11317A2653A2025640A0053657474696E6720489B
S11317B26F75723A2025640A0052544320557064AE
S11317C26174650054696D653A20253032643A25A6
S11317D23032643A253032640A00525443203A20AB
S11317E2253032643A253032643A253032640A00B4
S11317F2436C656172696E6720454550524F4D20B6
S11318022E2E2E0020646F6E6500454550524F4DBA
S113181220496E6465783A2025640A004545505291
S11318224F4D206E657720696E6465783A20256491
S11318320A00454550524F4D20486973746F7279BE
S11318423A200025644320000A68747470733A2FA6
S11318522F6769746875622E636F6D2F6B69752FBC
S11318626774696D65722076302E310A0054656D95
S113187270657261747572653A2025644320284D3F
S113188261783A20256443204D61784C6173743A3F
S113189220256443290A0048756D69646974793A9C
S11318A220256425250A0050756D70206D6F6465CE
S11318B2206368616E67652066726F6D20257320F0
S11318C2746F2025730A0049444C45005354415215
S11318D2540052554E0053544F50004F4646000098
S9030000FC
